01111111CLEDIR DA SILVA JUSTO         99999999999
02222222BATMAN                        00000001000
02222222BATMAN                        00000001000
02222222BATMAN                        00000001000
02222222BATMAN                        00000001000
02222222BATMAN                        00000001000
02222222BATMAN                        00000001000
02222222BATMAN                        00000001000
02222222BATMAN                        00000001000
02222222BATMAN                        00000001000
02222222BATMAN                        00000001000
02222222BATMAN                        00000001000
02222222BATMAN                        00000001000
02222222BATMAN                        00000001000
02222222BATMAN                        00000001000
02222222BATMAN                        00000001000
02222222BATMAN                        00000001000
02222222BATMAN                        00000001000
02222222BATMAN                        00000001000
02222222BATMAN                        00000001000
02222222BATMAN                        00000001000
02222222BATMAN                        00000001000
02222222BATMAN                        00000001000
02222222BATMAN                        00000001000
02222222BATMAN                        00000001000
02222222BATMAN                        00000001000
02222222BATMAN                        00000001000
02222222BATMAN                        00000001000
02222222BATMAN                        00000001000
02222222BATMAN                        00000001000
02222222BATMAN                        00000001000
02222222BATMAN                        00000001000
02222222BATMAN                        00000001000